:100000000C9434000C9451000C9451000C94510049
:100010000C9451000C9451000C9451000C9451001C
:100020000C9451000C9451000C9451000C9451000C
:100030000C9451000C9451000C9451000C945100FC
:100040000C9451000C9451000C9451000C945100EC
:100050000C9451000C9451000C9451000C945100DC
:100060000C9451000C94510011241FBECFEFD8E026
:10007000DEBFCDBF11E0A0E0B1E0E2E2F4E002C0FB
:1000800005900D92A632B107D9F711E0A6E2B1E0D2
:1000900001C01D92A133B107E1F70E94CA010C947F
:1000A0000F020C9400008FEC8093C4001092C500E6
:1000B00082E08093C00088E18093C10086E0809355
:1000C000C20008958091C00087FFFCCF8091C000DE
:1000D00084FF01C095CF8091C60008959091C00023
:1000E00095FFFCCF8093C60008958091C00087FFE4
:1000F00003C08091C600F9CF08952B98239A0895E4
:100100002B9A2398089583B183FB882780F908955B
:1001100002970197F1F70895CF93E0910001F091D4
:100120000101808591850E9488000E948000E091F5
:100130000001F0910101828593850E9488000E9450
:100140008300C82FE0910001F0910101848595851D
:100150000E9488008C2FCF9108950E947D00E0912D
:100160000001F0910101808191810E9488000E942C
:100170008000E0910001F0910101828193810E9451
:1001800088000E948300882379F0E0910001F091BB
:100190000101848195810E9488000E948300811161
:1001A0000EC081E090E008958EEF9FE30197F1F794
:1001B0000E948300811106C080E090E0089583E0F2
:1001C00090E0089582E090E00895CF93DF931F922E
:1001D000CDB7DEB789830E947D008981882329F00D
:1001E0000F90DF91CF910C948C00E0910001F09181
:1001F0000101868597850E9488000E948000E09119
:100200000001F0910101808991890E94880080E0BD
:100210000F90DF91CF910895DF92EF92FF920F93AD
:100220001F93CF93DF93C82F80912601E12CF12CEF
:1002300010E08823C1F1DD27C7FDD0950E947D0025
:100240000E948C00082F0E947D000E948C00D82EF6
:10025000802B59F4C70101969E0102C03595279560
:100260008A95E2F7822F817006C08D2D802311F4CC
:10027000802F01C081E00E94E500282F30E0220F8E
:10028000331F81E00D1180E0282B0E2C01C0220FBE
:100290000A94EAF7122B82E0E80EF11C88E0E816D7
:1002A000F10461F612C08C2F81700E94E5000E2CC3
:1002B00001C0880F0A94EAF7182BC5958FEFE81A4A
:1002C000F80A88E0E816F10471F7812FDF91CF91E9
:1002D0001F910F91FF90EF90DF900895089508957A
:1002E0000895CF93DF9387FF2FC0982F917E913A87
:1002F00011F1C82F923A18F4913849F048C0913C56
:10030000F9F0913E09F043C08C71806E3CC0807161
:100310000E94E500282F220F330B9C2F9C79D82FA9
:10032000D92BD22B8D2F0E946E00C1FF30C08D2F94
:1003300083708C6E28C0829581708093260127C0BF
:100340000E94AD008C6C1FC0A82FA077E82FEE7024
:10035000AA2379F0A595A595A595A595BB27A7FDF9
:10036000B095A75DBE4FF0E0F595E795EC938E7FD5
:100370000AC0F0E0F595E795E75DFE4F2081220F7A
:10038000330B807F822BDF91CF910C946E00DF9135
:10039000CF9108950E9453000E9475000E94AD0005
:1003A0000E946200109228011092270182E0E82E3C
:1003B000F12C01E010E00E946200209127013091B1
:1003C00028012130310581F020F022303105A1F0E3
:1003D000F2CF833E81F3813F71F3813EE9F41093C4
:1003E000280100932701E7CF833E69F4F0922801AA
:1003F000E0922701C3EEDFCF8C130AC010932801CF
:10040000009327018C2F0E940C010E946E00D3CF15
:1004100010922801109227010E947101CCCFF8940C
:02042000FFCF0C
:100422001401000108002000000104000400200063
:100432001C000C00000820000001000820000C0035
:06044200C400E4000C0000
:00000001FF
