:1000000012C02CC02BC02AC029C028C027C026C0BF
:1000100025C024C023C022C021C020C01FC01EC0D4
:100020001DC01CC01BC011241FBECFE5D4E0DEBF25
:10003000CDBF10E0A0E6B0E0E0E7F3E002C005903D
:100040000D92A638B107D9F710E0A6E8B0E001C0DC
:100050001D92A139B107E1F74CD188C1D1CF8BE90D
:1000600089B910BC82E08BB988E18AB986E880BD85
:1000700008955F9BFECF5C9B01C0C2CF8CB10895F9
:100080005D9BFECF8CB908955F9B02C08CB1FCCF05
:100090000895C498BC9A0895C49ABC98089586B3EC
:1000A00082958170089502970197F1F70895CF9393
:1000B000E0916000F091610080859185F4DFECDFD4
:1000C000E0916000F091610082859385ECDFE7DFCD
:1000D000C82FE0916000F091610084859585E3DF91
:1000E0008C2FCF910895D5DFE0916000F0916100F1
:1000F00080819181D8DFD0DFE0916000F0916100D4
:1001000082819381D0DFCBDF882369F0E0916000AA
:10011000F091610084819581C6DFC1DF81110DC03E
:1001200081E090E008958EEF9FE20197F1F7B7DF4D
:10013000811106C080E090E0089583E090E008958A
:1001400082E090E00895CF93DF931F92CDB7DEB7A2
:1001500089839FDF8981882321F00F90DF91CF91E0
:10016000A6CFE0916000F0916100868597859BDFC6
:1001700093DFE0916000F09161008089918993DFC5
:1001800080E00F90DF91CF910895DF92EF92FF9280
:100190000F931F93CF93DF93C82F80918600E12C9C
:1001A000F12C10E0882399F1DD27C7FDD09571DF90
:1001B0007EDF082F6EDF7BDFD82E802B59F4C7013E
:1001C00001969E0102C0359527958A95E2F7822F08
:1001D000817006C08D2D802311F4802F01C081E035
:1001E000B2DF282F30E0220F331F81E00D1180E0B5
:1001F000282B0E2C01C0220F0A94EAF7122B82E062
:10020000E80EF11C88E0E816F10489F611C08C2F85
:10021000817099DF0E2C01C0880F0A94EAF7182B21
:10022000C5958FEFE81AF80A88E0E816F10479F727
:10023000812FDF91CF911F910F91FF90EF90DF9071
:100240000895089508950895CF93DF9387FF2CC0F4
:10025000982F917E913A01F1C82F923A18F4913873
:1002600049F044C0913CE9F0913E09F03FC08C71E7
:10027000806E39C0807167DF282F220F330B9C2FCF
:100280009C79D82FD92BD22B8D2FFADEC1FF2EC00F
:100290008D2F83708C6E27C082958170809386002D
:1002A00025C021DF8C6C1FC0A82FA077E82FEE702F
:1002B000AA2379F0A595A595A595A595BB27A7FD9A
:1002C000B095A757BF4FF0E0F595E795EC938E7F7B
:1002D0000AC0F0E0F595E795E757FF4F2081220F20
:1002E000330B807F822BDF91CF91CACEDF91CF91EC
:1002F0000895B5DEC9DEF7DEBCDE109288001092EC
:10030000870082E0E82EF12C01E010E0B2DE2091BF
:100310008700309188002130310581F020F02230B3
:100320003105A1F0F3CF833E89F3813F79F3813E1C
:10033000D9F41093880000938700E8CF833E69F4D6
:10034000F0928800E0928700C3EEE0CF8C1308C0E3
:1003500010938800009387008C2F17DF91DED6CF93
:1003600010928800109287006FDFD0CFF894FFCFF3
:100370007400C00006001800C0000300030018004D
:100380001500090000061800C0000006180009004A
:060390009300AB00090020
:00000001FF
